:0408DF00020800000B
:1008C200E4FFFEE4FDFC0DBD00010CBC75F8BD307B
:0C08D200F50FBF00010EEF64034E70E74D
:0108DE0022F7
:10088C00E4F59020A015E50945087007F5087509F1
:10089C00018005E4F508F50930A0FDE50964014582
:1008AC0008700E7590F01208C275900F1208C28075
:0608BC00D2E4F59080CDAE
:03000000020800F3
:0C080000787FE4F6D8FD758109020847F6
:10080C0002088CE493A3F8E493A34003F68001F26E
:10081C0008DFF48029E493A3F85407240CC8C333ED
:10082C00C4540F4420C8834004F456800146F6DFBC
:10083C00E4800B01020408102040809008DFE47E65
:10084C00019360BCA3FF543F30E509541FFEE493B1
:10085C00A360010ECF54C025E060A840B8E493A378
:10086C00FAE493A3F8E493A3C8C582C8CAC583CAA3
:10087C00F0A3C8C582C8CAC583CADFE9DEE780BE5B
:0108E3000014
:00000001FF
