:0808D600D2B78FA07F017E0064
:1008DE00E4FDFCC3ED9FEE6480F8EC648098501547
:1008EE00E4FAFB0BBB00010ABA4EF8BB20F50DBDB6
:0508FE0000010C80DE8A
:0109030022D1
:08091000C2B61208D6C2B722DC
:08091800D2B61208D6C2B722C4
:100800007F381209107F0E1209107F011209107F24
:100810004E1209187F491209187F451209187F4C9A
:100820001209187F491209187F541209187FC01243
:100830000910D297D296D295D294D293D292D291D5
:10084000D290C2902094057F311209182095057F1F
:10085000321209182096057F331209182097057F58
:1008600034120918D290C2912094057F35120918CC
:100870002095057F361209182096057F3712091832
:100880002097057F38120918D291C2922094057FD3
:10089000391209182095057F411209182096057F05
:1008A000421209182097057F43120918D292C29369
:1008B0002094057F441209182095057F45120918D8
:1008C0002096057F461209182097057F011209100E
:0608D0001208DA020832F2
:03000000020904EE
:0C090400787FE4F6D8FD7581070208003A
:00000001FF
